{
  "_format": "hh-sol-artifact-1",
  "contractName": "MemeFiNFT",
  "sourceName": "contracts/MemeFiNFT.sol",
  "abi": [
    {
      "inputs": [
        {
          "internalType": "string",
          "name": "baseURI",
          "type": "string"
        }
      ],
      "stateMutability": "nonpayable",
      "type": "constructor"
    },
    {
      "inputs": [
        {
          "internalType": "address",
          "name": "sender",
          "type": "address"
        },
        {
          "internalType": "uint256",
          "name": "tokenId",
          "type": "uint256"
        },
        {
          "internalType": "address",
          "name": "owner",
          "type": "address"
        }
      ],
      "name": "ERC721IncorrectOwner",
      "type": "error"
    },
    {
      "inputs": [
        {
          "internalType": "address",
          "name": "operator",
          "type": "address"
        },
        {
          "internalType": "uint256",
          "name": "tokenId",
          "type": "uint256"
        }
      ],
      "name": "ERC721InsufficientApproval",
      "type": "error"
    },
    {
      "inputs": [
        {
          "internalType": "address",
          "name": "approver",
          "type": "address"
        }
      ],
      "name": "ERC721InvalidApprover",
      "type": "error"
    },
    {
      "inputs": [
        {
          "internalType": "address",
          "name": "operator",
          "type": "address"
        }
      ],
      "name": "ERC721InvalidOperator",
      "type": "error"
    },
    {
      "inputs": [
        {
          "internalType": "address",
          "name": "owner",
          "type": "address"
        }
      ],
      "name": "ERC721InvalidOwner",
      "type": "error"
    },
    {
      "inputs": [
        {
          "internalType": "address",
          "name": "receiver",
          "type": "address"
        }
      ],
      "name": "ERC721InvalidReceiver",
      "type": "error"
    },
    {
      "inputs": [
        {
          "internalType": "address",
          "name": "sender",
          "type": "address"
        }
      ],
      "name": "ERC721InvalidSender",
      "type": "error"
    },
    {
      "inputs": [
        {
          "internalType": "uint256",
          "name": "tokenId",
          "type": "uint256"
        }
      ],
      "name": "ERC721NonexistentToken",
      "type": "error"
    },
    {
      "inputs": [
        {
          "internalType": "address",
          "name": "owner",
          "type": "address"
        }
      ],
      "name": "OwnableInvalidOwner",
      "type": "error"
    },
    {
      "inputs": [
        {
          "internalType": "address",
          "name": "account",
          "type": "address"
        }
      ],
      "name": "OwnableUnauthorizedAccount",
      "type": "error"
    },
    {
      "anonymous": false,
      "inputs": [
        {
          "indexed": true,
          "internalType": "address",
          "name": "owner",
          "type": "address"
        },
        {
          "indexed": true,
          "internalType": "address",
          "name": "approved",
          "type": "address"
        },
        {
          "indexed": true,
          "internalType": "uint256",
          "name": "tokenId",
          "type": "uint256"
        }
      ],
      "name": "Approval",
      "type": "event"
    },
    {
      "anonymous": false,
      "inputs": [
        {
          "indexed": true,
          "internalType": "address",
          "name": "owner",
          "type": "address"
        },
        {
          "indexed": true,
          "internalType": "address",
          "name": "operator",
          "type": "address"
        },
        {
          "indexed": false,
          "internalType": "bool",
          "name": "approved",
          "type": "bool"
        }
      ],
      "name": "ApprovalForAll",
      "type": "event"
    },
    {
      "anonymous": false,
      "inputs": [
        {
          "indexed": false,
          "internalType": "uint256",
          "name": "_fromTokenId",
          "type": "uint256"
        },
        {
          "indexed": false,
          "internalType": "uint256",
          "name": "_toTokenId",
          "type": "uint256"
        }
      ],
      "name": "BatchMetadataUpdate",
      "type": "event"
    },
    {
      "anonymous": false,
      "inputs": [
        {
          "indexed": false,
          "internalType": "uint256",
          "name": "memeId",
          "type": "uint256"
        },
        {
          "indexed": false,
          "internalType": "string",
          "name": "tokenURI",
          "type": "string"
        },
        {
          "indexed": false,
          "internalType": "address",
          "name": "creator",
          "type": "address"
        }
      ],
      "name": "MemeCreated",
      "type": "event"
    },
    {
      "anonymous": false,
      "inputs": [
        {
          "indexed": false,
          "internalType": "uint256",
          "name": "memeId",
          "type": "uint256"
        },
        {
          "indexed": false,
          "internalType": "address",
          "name": "newOwner",
          "type": "address"
        }
      ],
      "name": "MemeTransferred",
      "type": "event"
    },
    {
      "anonymous": false,
      "inputs": [
        {
          "indexed": false,
          "internalType": "uint256",
          "name": "_tokenId",
          "type": "uint256"
        }
      ],
      "name": "MetadataUpdate",
      "type": "event"
    },
    {
      "anonymous": false,
      "inputs": [
        {
          "indexed": false,
          "internalType": "uint256",
          "name": "memeId",
          "type": "uint256"
        },
        {
          "indexed": false,
          "internalType": "uint256",
          "name": "bidAmount",
          "type": "uint256"
        },
        {
          "indexed": false,
          "internalType": "address",
          "name": "bidder",
          "type": "address"
        }
      ],
      "name": "NewBidPlaced",
      "type": "event"
    },
    {
      "anonymous": false,
      "inputs": [
        {
          "indexed": true,
          "internalType": "address",
          "name": "previousOwner",
          "type": "address"
        },
        {
          "indexed": true,
          "internalType": "address",
          "name": "newOwner",
          "type": "address"
        }
      ],
      "name": "OwnershipTransferred",
      "type": "event"
    },
    {
      "anonymous": false,
      "inputs": [
        {
          "indexed": true,
          "internalType": "address",
          "name": "from",
          "type": "address"
        },
        {
          "indexed": true,
          "internalType": "address",
          "name": "to",
          "type": "address"
        },
        {
          "indexed": true,
          "internalType": "uint256",
          "name": "tokenId",
          "type": "uint256"
        }
      ],
      "name": "Transfer",
      "type": "event"
    },
    {
      "inputs": [
        {
          "internalType": "address",
          "name": "to",
          "type": "address"
        },
        {
          "internalType": "uint256",
          "name": "tokenId",
          "type": "uint256"
        }
      ],
      "name": "approve",
      "outputs": [],
      "stateMutability": "nonpayable",
      "type": "function"
    },
    {
      "inputs": [
        {
          "internalType": "address",
          "name": "owner",
          "type": "address"
        }
      ],
      "name": "balanceOf",
      "outputs": [
        {
          "internalType": "uint256",
          "name": "",
          "type": "uint256"
        }
      ],
      "stateMutability": "view",
      "type": "function"
    },
    {
      "inputs": [
        {
          "internalType": "uint256",
          "name": "memeId",
          "type": "uint256"
        }
      ],
      "name": "bid",
      "outputs": [],
      "stateMutability": "payable",
      "type": "function"
    },
    {
      "inputs": [
        {
          "internalType": "string",
          "name": "tokenURI",
          "type": "string"
        }
      ],
      "name": "createMeme",
      "outputs": [
        {
          "internalType": "uint256",
          "name": "",
          "type": "uint256"
        }
      ],
      "stateMutability": "nonpayable",
      "type": "function"
    },
    {
      "inputs": [
        {
          "internalType": "uint256",
          "name": "memeId",
          "type": "uint256"
        }
      ],
      "name": "endAuction",
      "outputs": [],
      "stateMutability": "nonpayable",
      "type": "function"
    },
    {
      "inputs": [
        {
          "internalType": "uint256",
          "name": "tokenId",
          "type": "uint256"
        }
      ],
      "name": "getApproved",
      "outputs": [
        {
          "internalType": "address",
          "name": "",
          "type": "address"
        }
      ],
      "stateMutability": "view",
      "type": "function"
    },
    {
      "inputs": [
        {
          "internalType": "address",
          "name": "owner",
          "type": "address"
        },
        {
          "internalType": "address",
          "name": "operator",
          "type": "address"
        }
      ],
      "name": "isApprovedForAll",
      "outputs": [
        {
          "internalType": "bool",
          "name": "",
          "type": "bool"
        }
      ],
      "stateMutability": "view",
      "type": "function"
    },
    {
      "inputs": [
        {
          "internalType": "uint256",
          "name": "",
          "type": "uint256"
        }
      ],
      "name": "memes",
      "outputs": [
        {
          "internalType": "uint256",
          "name": "memeId",
          "type": "uint256"
        },
        {
          "internalType": "uint256",
          "name": "highestBid",
          "type": "uint256"
        },
        {
          "internalType": "address payable",
          "name": "highestBidder",
          "type": "address"
        },
        {
          "internalType": "address payable",
          "name": "creator",
          "type": "address"
        },
        {
          "internalType": "bool",
          "name": "onAuction",
          "type": "bool"
        }
      ],
      "stateMutability": "view",
      "type": "function"
    },
    {
      "inputs": [],
      "name": "name",
      "outputs": [
        {
          "internalType": "string",
          "name": "",
          "type": "string"
        }
      ],
      "stateMutability": "view",
      "type": "function"
    },
    {
      "inputs": [],
      "name": "owner",
      "outputs": [
        {
          "internalType": "address",
          "name": "",
          "type": "address"
        }
      ],
      "stateMutability": "view",
      "type": "function"
    },
    {
      "inputs": [
        {
          "internalType": "uint256",
          "name": "tokenId",
          "type": "uint256"
        }
      ],
      "name": "ownerOf",
      "outputs": [
        {
          "internalType": "address",
          "name": "",
          "type": "address"
        }
      ],
      "stateMutability": "view",
      "type": "function"
    },
    {
      "inputs": [],
      "name": "renounceOwnership",
      "outputs": [],
      "stateMutability": "nonpayable",
      "type": "function"
    },
    {
      "inputs": [
        {
          "internalType": "address",
          "name": "from",
          "type": "address"
        },
        {
          "internalType": "address",
          "name": "to",
          "type": "address"
        },
        {
          "internalType": "uint256",
          "name": "tokenId",
          "type": "uint256"
        }
      ],
      "name": "safeTransferFrom",
      "outputs": [],
      "stateMutability": "nonpayable",
      "type": "function"
    },
    {
      "inputs": [
        {
          "internalType": "address",
          "name": "from",
          "type": "address"
        },
        {
          "internalType": "address",
          "name": "to",
          "type": "address"
        },
        {
          "internalType": "uint256",
          "name": "tokenId",
          "type": "uint256"
        },
        {
          "internalType": "bytes",
          "name": "data",
          "type": "bytes"
        }
      ],
      "name": "safeTransferFrom",
      "outputs": [],
      "stateMutability": "nonpayable",
      "type": "function"
    },
    {
      "inputs": [
        {
          "internalType": "address",
          "name": "operator",
          "type": "address"
        },
        {
          "internalType": "bool",
          "name": "approved",
          "type": "bool"
        }
      ],
      "name": "setApprovalForAll",
      "outputs": [],
      "stateMutability": "nonpayable",
      "type": "function"
    },
    {
      "inputs": [
        {
          "internalType": "uint256",
          "name": "memeId",
          "type": "uint256"
        }
      ],
      "name": "startAuction",
      "outputs": [],
      "stateMutability": "nonpayable",
      "type": "function"
    },
    {
      "inputs": [
        {
          "internalType": "bytes4",
          "name": "interfaceId",
          "type": "bytes4"
        }
      ],
      "name": "supportsInterface",
      "outputs": [
        {
          "internalType": "bool",
          "name": "",
          "type": "bool"
        }
      ],
      "stateMutability": "view",
      "type": "function"
    },
    {
      "inputs": [],
      "name": "symbol",
      "outputs": [
        {
          "internalType": "string",
          "name": "",
          "type": "string"
        }
      ],
      "stateMutability": "view",
      "type": "function"
    },
    {
      "inputs": [
        {
          "internalType": "uint256",
          "name": "tokenId",
          "type": "uint256"
        }
      ],
      "name": "tokenURI",
      "outputs": [
        {
          "internalType": "string",
          "name": "",
          "type": "string"
        }
      ],
      "stateMutability": "view",
      "type": "function"
    },
    {
      "inputs": [
        {
          "internalType": "address",
          "name": "from",
          "type": "address"
        },
        {
          "internalType": "address",
          "name": "to",
          "type": "address"
        },
        {
          "internalType": "uint256",
          "name": "tokenId",
          "type": "uint256"
        }
      ],
      "name": "transferFrom",
      "outputs": [],
      "stateMutability": "nonpayable",
      "type": "function"
    },
    {
      "inputs": [
        {
          "internalType": "address",
          "name": "newOwner",
          "type": "address"
        }
      ],
      "name": "transferOwnership",
      "outputs": [],
      "stateMutability": "nonpayable",
      "type": "function"
    }
  ],
  "bytecode": "0x60806040523480156200001157600080fd5b5060405162003d0638038062003d068339818101604052810190620000379190620003cb565b336040518060400160405280600981526020017f4d656d6546694e465400000000000000000000000000000000000000000000008152506040518060400160405280600581526020017f4d464e46540000000000000000000000000000000000000000000000000000008152508160009081620000b5919062000667565b508060019081620000c7919062000667565b505050600073ffffffffffffffffffffffffffffffffffffffff168173ffffffffffffffffffffffffffffffffffffffff16036200013f5760006040517f1e4fbdf700000000000000000000000000000000000000000000000000000000815260040162000136919062000793565b60405180910390fd5b62000150816200017260201b60201c565b50600160088190555080600990816200016a919062000667565b5050620007b0565b6000600760009054906101000a900473ffffffffffffffffffffffffffffffffffffffff16905081600760006101000a81548173ffffffffffffffffffffffffffffffffffffffff021916908373ffffffffffffffffffffffffffffffffffffffff1602179055508173ffffffffffffffffffffffffffffffffffffffff168173ffffffffffffffffffffffffffffffffffffffff167f8be0079c531659141344cd1fd0a4f28419497f9722a3daafe3b4186f6b6457e060405160405180910390a35050565b6000604051905090565b600080fd5b600080fd5b600080fd5b600080fd5b6000601f19601f8301169050919050565b7f4e487b7100000000000000000000000000000000000000000000000000000000600052604160045260246000fd5b620002a18262000256565b810181811067ffffffffffffffff82111715620002c357620002c262000267565b5b80604052505050565b6000620002d862000238565b9050620002e6828262000296565b919050565b600067ffffffffffffffff82111562000309576200030862000267565b5b620003148262000256565b9050602081019050919050565b60005b838110156200034157808201518184015260208101905062000324565b60008484015250505050565b6000620003646200035e84620002eb565b620002cc565b90508281526020810184848401111562000383576200038262000251565b5b6200039084828562000321565b509392505050565b600082601f830112620003b057620003af6200024c565b5b8151620003c28482602086016200034d565b91505092915050565b600060208284031215620003e457620003e362000242565b5b600082015167ffffffffffffffff81111562000405576200040462000247565b5b620004138482850162000398565b91505092915050565b600081519050919050565b7f4e487b7100000000000000000000000000000000000000000000000000000000600052602260045260246000fd5b600060028204905060018216806200046f57607f821691505b60208210810362000485576200048462000427565b5b50919050565b60008190508160005260206000209050919050565b60006020601f8301049050919050565b600082821b905092915050565b600060088302620004ef7fffffffffffffffffffffffffffffffffffffffffffffffffffffffffffffffff82620004b0565b620004fb8683620004b0565b95508019841693508086168417925050509392505050565b6000819050919050565b6000819050919050565b600062000548620005426200053c8462000513565b6200051d565b62000513565b9050919050565b6000819050919050565b620005648362000527565b6200057c62000573826200054f565b848454620004bd565b825550505050565b600090565b6200059362000584565b620005a081848462000559565b505050565b5b81811015620005c857620005bc60008262000589565b600181019050620005a6565b5050565b601f8211156200061757620005e1816200048b565b620005ec84620004a0565b81016020851015620005fc578190505b620006146200060b85620004a0565b830182620005a5565b50505b505050565b600082821c905092915050565b60006200063c600019846008026200061c565b1980831691505092915050565b600062000657838362000629565b9150826002028217905092915050565b62000672826200041c565b67ffffffffffffffff8111156200068e576200068d62000267565b5b6200069a825462000456565b620006a7828285620005cc565b600060209050601f831160018114620006df5760008415620006ca578287015190505b620006d6858262000649565b86555062000746565b601f198416620006ef866200048b565b60005b828110156200071957848901518255600182019150602085019450602081019050620006f2565b8683101562000739578489015162000735601f89168262000629565b8355505b6001600288020188555050505b505050505050565b600073ffffffffffffffffffffffffffffffffffffffff82169050919050565b60006200077b826200074e565b9050919050565b6200078d816200076e565b82525050565b6000602082019050620007aa600083018462000782565b92915050565b61354680620007c06000396000f3fe60806040526004361061012a5760003560e01c80636352211e116100ab578063a22cb4651161006f578063a22cb465146103f9578063b88d4fde14610422578063b9a2de3a1461044b578063c87b56dd14610474578063e985e9c5146104b1578063f2fde38b146104ee5761012a565b80636352211e1461031257806370a082311461034f578063715018a61461038c5780638da5cb5b146103a357806395d89b41146103ce5761012a565b80630cf8e514116100f25780630cf8e5141461022657806323b872dd14610263578063388f60641461028c57806342842e0e146102cd578063454a2ab3146102f65761012a565b806301ffc9a71461012f578063065de74c1461016c57806306fdde0314610195578063081812fc146101c0578063095ea7b3146101fd575b600080fd5b34801561013b57600080fd5b5061015660048036038101906101519190612550565b610517565b6040516101639190612598565b60405180910390f35b34801561017857600080fd5b50610193600480360381019061018e91906125e9565b610578565b005b3480156101a157600080fd5b506101aa610684565b6040516101b791906126a6565b60405180910390f35b3480156101cc57600080fd5b506101e760048036038101906101e291906125e9565b610716565b6040516101f49190612709565b60405180910390f35b34801561020957600080fd5b50610224600480360381019061021f9190612750565b610732565b005b34801561023257600080fd5b5061024d600480360381019061024891906128c5565b610748565b60405161025a919061291d565b60405180910390f35b34801561026f57600080fd5b5061028a60048036038101906102859190612938565b6108f0565b005b34801561029857600080fd5b506102b360048036038101906102ae91906125e9565b6109f2565b6040516102c49594939291906129ac565b60405180910390f35b3480156102d957600080fd5b506102f460048036038101906102ef9190612938565b610a75565b005b610310600480360381019061030b91906125e9565b610a95565b005b34801561031e57600080fd5b50610339600480360381019061033491906125e9565b610cb1565b6040516103469190612709565b60405180910390f35b34801561035b57600080fd5b50610376600480360381019061037191906129ff565b610cc3565b604051610383919061291d565b60405180910390f35b34801561039857600080fd5b506103a1610d7d565b005b3480156103af57600080fd5b506103b8610d91565b6040516103c59190612709565b60405180910390f35b3480156103da57600080fd5b506103e3610dbb565b6040516103f091906126a6565b60405180910390f35b34801561040557600080fd5b50610420600480360381019061041b9190612a58565b610e4d565b005b34801561042e57600080fd5b5061044960048036038101906104449190612b39565b610e63565b005b34801561045757600080fd5b50610472600480360381019061046d91906125e9565b610e88565b005b34801561048057600080fd5b5061049b600480360381019061049691906125e9565b6110a0565b6040516104a891906126a6565b60405180910390f35b3480156104bd57600080fd5b506104d860048036038101906104d39190612bbc565b6111b3565b6040516104e59190612598565b60405180910390f35b3480156104fa57600080fd5b50610515600480360381019061051091906129ff565b611247565b005b6000634906490660e01b7bffffffffffffffffffffffffffffffffffffffffffffffffffffffff1916827bffffffffffffffffffffffffffffffffffffffffffffffffffffffff191614806105715750610570826112cd565b5b9050919050565b3373ffffffffffffffffffffffffffffffffffffffff1661059882610cb1565b73ffffffffffffffffffffffffffffffffffffffff16146105ee576040517f08c379a00000000000000000000000000000000000000000000000000000000081526004016105e590612c6e565b60405180910390fd5b600a600082815260200190815260200160002060030160149054906101000a900460ff1615610652576040517f08c379a000000000000000000000000000000000000000000000000000000000815260040161064990612cda565b60405180910390fd5b6001600a600083815260200190815260200160002060030160146101000a81548160ff02191690831515021790555050565b60606000805461069390612d29565b80601f01602080910402602001604051908101604052809291908181526020018280546106bf90612d29565b801561070c5780601f106106e15761010080835404028352916020019161070c565b820191906000526020600020905b8154815290600101906020018083116106ef57829003601f168201915b5050505050905090565b6000610721826113af565b5061072b82611437565b9050919050565b610744828261073f611474565b61147c565b5050565b60008060085490506008600081548092919061076390612d89565b9190505550610772338261148e565b61077c8184611587565b6040518060a0016040528082815260200160008152602001600073ffffffffffffffffffffffffffffffffffffffff1681526020013373ffffffffffffffffffffffffffffffffffffffff16815260200160001515815250600a6000838152602001908152602001600020600082015181600001556020820151816001015560408201518160020160006101000a81548173ffffffffffffffffffffffffffffffffffffffff021916908373ffffffffffffffffffffffffffffffffffffffff16021790555060608201518160030160006101000a81548173ffffffffffffffffffffffffffffffffffffffff021916908373ffffffffffffffffffffffffffffffffffffffff16021790555060808201518160030160146101000a81548160ff0219169083151502179055509050507f20b42b0d7f73a52833087955d5a27ed5298eb42161e05aebf10219a57ebb659c8184336040516108df93929190612dd1565b60405180910390a180915050919050565b600073ffffffffffffffffffffffffffffffffffffffff168273ffffffffffffffffffffffffffffffffffffffff16036109625760006040517f64a0ae920000000000000000000000000000000000000000000000000000000081526004016109599190612709565b60405180910390fd5b60006109768383610971611474565b6115e3565b90508373ffffffffffffffffffffffffffffffffffffffff168173ffffffffffffffffffffffffffffffffffffffff16146109ec578382826040517f64283d7b0000000000000000000000000000000000000000000000000000000081526004016109e393929190612e0f565b60405180910390fd5b50505050565b600a6020528060005260406000206000915090508060000154908060010154908060020160009054906101000a900473ffffffffffffffffffffffffffffffffffffffff16908060030160009054906101000a900473ffffffffffffffffffffffffffffffffffffffff16908060030160149054906101000a900460ff16905085565b610a9083838360405180602001604052806000815250610e63565b505050565b600a600082815260200190815260200160002060030160149054906101000a900460ff16610af8576040517f08c379a0000000000000000000000000000000000000000000000000000000008152600401610aef90612e92565b60405180910390fd5b600a6000828152602001908152602001600020600101543411610b50576040517f08c379a0000000000000000000000000000000000000000000000000000000008152600401610b4790612f24565b60405180910390fd5b6000600a6000838152602001908152602001600020600101541115610c0357600a600082815260200190815260200160002060020160009054906101000a900473ffffffffffffffffffffffffffffffffffffffff1673ffffffffffffffffffffffffffffffffffffffff166108fc600a6000848152602001908152602001600020600101549081150290604051600060405180830381858888f19350505050158015610c01573d6000803e3d6000fd5b505b34600a60008381526020019081526020016000206001018190555033600a600083815260200190815260200160002060020160006101000a81548173ffffffffffffffffffffffffffffffffffffffff021916908373ffffffffffffffffffffffffffffffffffffffff1602179055507f6870e6f5142884cd8dc601fafc2045f9d12bd9a78214deabf13f782eb3e84d82813433604051610ca693929190612f44565b60405180910390a150565b6000610cbc826113af565b9050919050565b60008073ffffffffffffffffffffffffffffffffffffffff168273ffffffffffffffffffffffffffffffffffffffff1603610d365760006040517f89c62b64000000000000000000000000000000000000000000000000000000008152600401610d2d9190612709565b60405180910390fd5b600360008373ffffffffffffffffffffffffffffffffffffffff1673ffffffffffffffffffffffffffffffffffffffff168152602001908152602001600020549050919050565b610d856117fd565b610d8f6000611884565b565b6000600760009054906101000a900473ffffffffffffffffffffffffffffffffffffffff16905090565b606060018054610dca90612d29565b80601f0160208091040260200160405190810160405280929190818152602001828054610df690612d29565b8015610e435780601f10610e1857610100808354040283529160200191610e43565b820191906000526020600020905b815481529060010190602001808311610e2657829003601f168201915b5050505050905090565b610e5f610e58611474565b838361194a565b5050565b610e6e8484846108f0565b610e82610e79611474565b85858585611ab9565b50505050565b3373ffffffffffffffffffffffffffffffffffffffff16610ea882610cb1565b73ffffffffffffffffffffffffffffffffffffffff1614610efe576040517f08c379a0000000000000000000000000000000000000000000000000000000008152600401610ef590612fed565b60405180910390fd5b600a600082815260200190815260200160002060030160149054906101000a900460ff16610f61576040517f08c379a0000000000000000000000000000000000000000000000000000000008152600401610f5890613059565b60405180910390fd5b6000600a600083815260200190815260200160002060030160146101000a81548160ff021916908315150217905550610fd133600a600084815260200190815260200160002060020160009054906101000a900473ffffffffffffffffffffffffffffffffffffffff1683611c6a565b3373ffffffffffffffffffffffffffffffffffffffff166108fc600a6000848152602001908152602001600020600101549081150290604051600060405180830381858888f1935050505015801561102d573d6000803e3d6000fd5b507fd6c51ef7356f57533116db5302669bc567af76542e1e71c585a335b14e33c69c81600a600084815260200190815260200160002060020160009054906101000a900473ffffffffffffffffffffffffffffffffffffffff166040516110959291906130d8565b60405180910390a150565b60606110ab826113af565b5060006006600084815260200190815260200160002080546110cc90612d29565b80601f01602080910402602001604051908101604052809291908181526020018280546110f890612d29565b80156111455780601f1061111a57610100808354040283529160200191611145565b820191906000526020600020905b81548152906001019060200180831161112857829003601f168201915b505050505090506000611156611dd7565b9050600081510361116b5781925050506111ae565b6000825111156111a057808260405160200161118892919061313d565b604051602081830303815290604052925050506111ae565b6111a984611e69565b925050505b919050565b6000600560008473ffffffffffffffffffffffffffffffffffffffff1673ffffffffffffffffffffffffffffffffffffffff16815260200190815260200160002060008373ffffffffffffffffffffffffffffffffffffffff1673ffffffffffffffffffffffffffffffffffffffff16815260200190815260200160002060009054906101000a900460ff16905092915050565b61124f6117fd565b600073ffffffffffffffffffffffffffffffffffffffff168173ffffffffffffffffffffffffffffffffffffffff16036112c15760006040517f1e4fbdf70000000000000000000000000000000000000000000000000000000081526004016112b89190612709565b60405180910390fd5b6112ca81611884565b50565b60007f80ac58cd000000000000000000000000000000000000000000000000000000007bffffffffffffffffffffffffffffffffffffffffffffffffffffffff1916827bffffffffffffffffffffffffffffffffffffffffffffffffffffffff1916148061139857507f5b5e139f000000000000000000000000000000000000000000000000000000007bffffffffffffffffffffffffffffffffffffffffffffffffffffffff1916827bffffffffffffffffffffffffffffffffffffffffffffffffffffffff1916145b806113a857506113a782611ed2565b5b9050919050565b6000806113bb83611f3c565b9050600073ffffffffffffffffffffffffffffffffffffffff168173ffffffffffffffffffffffffffffffffffffffff160361142e57826040517f7e273289000000000000000000000000000000000000000000000000000000008152600401611425919061291d565b60405180910390fd5b80915050919050565b60006004600083815260200190815260200160002060009054906101000a900473ffffffffffffffffffffffffffffffffffffffff169050919050565b600033905090565b6114898383836001611f79565b505050565b600073ffffffffffffffffffffffffffffffffffffffff168273ffffffffffffffffffffffffffffffffffffffff16036115005760006040517f64a0ae920000000000000000000000000000000000000000000000000000000081526004016114f79190612709565b60405180910390fd5b600061150e838360006115e3565b9050600073ffffffffffffffffffffffffffffffffffffffff168173ffffffffffffffffffffffffffffffffffffffff16146115825760006040517f73c6ac6e0000000000000000000000000000000000000000000000000000000081526004016115799190612709565b60405180910390fd5b505050565b806006600084815260200190815260200160002090816115a79190613303565b507ff8e1a15aba9398e019f0b49df1a4fde98ee17ae345cb5f6b5e2c27f5033e8ce7826040516115d7919061291d565b60405180910390a15050565b6000806115ef84611f3c565b9050600073ffffffffffffffffffffffffffffffffffffffff168373ffffffffffffffffffffffffffffffffffffffff16146116315761163081848661213e565b5b600073ffffffffffffffffffffffffffffffffffffffff168173ffffffffffffffffffffffffffffffffffffffff16146116c257611673600085600080611f79565b6001600360008373ffffffffffffffffffffffffffffffffffffffff1673ffffffffffffffffffffffffffffffffffffffff168152602001908152602001600020600082825403925050819055505b600073ffffffffffffffffffffffffffffffffffffffff168573ffffffffffffffffffffffffffffffffffffffff1614611745576001600360008773ffffffffffffffffffffffffffffffffffffffff1673ffffffffffffffffffffffffffffffffffffffff168152602001908152602001600020600082825401925050819055505b846002600086815260200190815260200160002060006101000a81548173ffffffffffffffffffffffffffffffffffffffff021916908373ffffffffffffffffffffffffffffffffffffffff160217905550838573ffffffffffffffffffffffffffffffffffffffff168273ffffffffffffffffffffffffffffffffffffffff167fddf252ad1be2c89b69c2b068fc378daa952ba7f163c4a11628f55a4df523b3ef60405160405180910390a4809150509392505050565b611805611474565b73ffffffffffffffffffffffffffffffffffffffff16611823610d91565b73ffffffffffffffffffffffffffffffffffffffff161461188257611846611474565b6040517f118cdaa70000000000000000000000000000000000000000000000000000000081526004016118799190612709565b60405180910390fd5b565b6000600760009054906101000a900473ffffffffffffffffffffffffffffffffffffffff16905081600760006101000a81548173ffffffffffffffffffffffffffffffffffffffff021916908373ffffffffffffffffffffffffffffffffffffffff1602179055508173ffffffffffffffffffffffffffffffffffffffff168173ffffffffffffffffffffffffffffffffffffffff167f8be0079c531659141344cd1fd0a4f28419497f9722a3daafe3b4186f6b6457e060405160405180910390a35050565b600073ffffffffffffffffffffffffffffffffffffffff168273ffffffffffffffffffffffffffffffffffffffff16036119bb57816040517f5b08ba180000000000000000000000000000000000000000000000000000000081526004016119b29190612709565b60405180910390fd5b80600560008573ffffffffffffffffffffffffffffffffffffffff1673ffffffffffffffffffffffffffffffffffffffff16815260200190815260200160002060008473ffffffffffffffffffffffffffffffffffffffff1673ffffffffffffffffffffffffffffffffffffffff16815260200190815260200160002060006101000a81548160ff0219169083151502179055508173ffffffffffffffffffffffffffffffffffffffff168373ffffffffffffffffffffffffffffffffffffffff167f17307eab39ab6107e8899845ad3d59bd9653f200f220920489ca2b5937696c3183604051611aac9190612598565b60405180910390a3505050565b60008373ffffffffffffffffffffffffffffffffffffffff163b1115611c63578273ffffffffffffffffffffffffffffffffffffffff1663150b7a02868685856040518563ffffffff1660e01b8152600401611b18949392919061342a565b6020604051808303816000875af1925050508015611b5457506040513d601f19601f82011682018060405250810190611b51919061348b565b60015b611bd8573d8060008114611b84576040519150601f19603f3d011682016040523d82523d6000602084013e611b89565b606091505b506000815103611bd057836040517f64a0ae92000000000000000000000000000000000000000000000000000000008152600401611bc79190612709565b60405180910390fd5b805181602001fd5b63150b7a0260e01b7bffffffffffffffffffffffffffffffffffffffffffffffffffffffff1916817bffffffffffffffffffffffffffffffffffffffffffffffffffffffff191614611c6157836040517f64a0ae92000000000000000000000000000000000000000000000000000000008152600401611c589190612709565b60405180910390fd5b505b5050505050565b600073ffffffffffffffffffffffffffffffffffffffff168273ffffffffffffffffffffffffffffffffffffffff1603611cdc5760006040517f64a0ae92000000000000000000000000000000000000000000000000000000008152600401611cd39190612709565b60405180910390fd5b6000611cea838360006115e3565b9050600073ffffffffffffffffffffffffffffffffffffffff168173ffffffffffffffffffffffffffffffffffffffff1603611d5d57816040517f7e273289000000000000000000000000000000000000000000000000000000008152600401611d54919061291d565b60405180910390fd5b8373ffffffffffffffffffffffffffffffffffffffff168173ffffffffffffffffffffffffffffffffffffffff1614611dd1578382826040517f64283d7b000000000000000000000000000000000000000000000000000000008152600401611dc893929190612e0f565b60405180910390fd5b50505050565b606060098054611de690612d29565b80601f0160208091040260200160405190810160405280929190818152602001828054611e1290612d29565b8015611e5f5780601f10611e3457610100808354040283529160200191611e5f565b820191906000526020600020905b815481529060010190602001808311611e4257829003601f168201915b5050505050905090565b6060611e74826113af565b506000611e7f611dd7565b90506000815111611e9f5760405180602001604052806000815250611eca565b80611ea984612202565b604051602001611eba92919061313d565b6040516020818303038152906040525b915050919050565b60007f01ffc9a7000000000000000000000000000000000000000000000000000000007bffffffffffffffffffffffffffffffffffffffffffffffffffffffff1916827bffffffffffffffffffffffffffffffffffffffffffffffffffffffff1916149050919050565b60006002600083815260200190815260200160002060009054906101000a900473ffffffffffffffffffffffffffffffffffffffff169050919050565b8080611fb25750600073ffffffffffffffffffffffffffffffffffffffff168273ffffffffffffffffffffffffffffffffffffffff1614155b156120e6576000611fc2846113af565b9050600073ffffffffffffffffffffffffffffffffffffffff168373ffffffffffffffffffffffffffffffffffffffff161415801561202d57508273ffffffffffffffffffffffffffffffffffffffff168173ffffffffffffffffffffffffffffffffffffffff1614155b8015612040575061203e81846111b3565b155b1561208257826040517fa9fbf51f0000000000000000000000000000000000000000000000000000000081526004016120799190612709565b60405180910390fd5b81156120e457838573ffffffffffffffffffffffffffffffffffffffff168273ffffffffffffffffffffffffffffffffffffffff167f8c5be1e5ebec7d5bd14f71427d1e84f3dd0314c0f7b2291e5b200ac8c7c3b92560405160405180910390a45b505b836004600085815260200190815260200160002060006101000a81548173ffffffffffffffffffffffffffffffffffffffff021916908373ffffffffffffffffffffffffffffffffffffffff16021790555050505050565b6121498383836122d0565b6121fd57600073ffffffffffffffffffffffffffffffffffffffff168373ffffffffffffffffffffffffffffffffffffffff16036121be57806040517f7e2732890000000000000000000000000000000000000000000000000000000081526004016121b5919061291d565b60405180910390fd5b81816040517f177e802f0000000000000000000000000000000000000000000000000000000081526004016121f49291906134b8565b60405180910390fd5b505050565b60606000600161221184612391565b01905060008167ffffffffffffffff8111156122305761222f61279a565b5b6040519080825280601f01601f1916602001820160405280156122625781602001600182028036833780820191505090505b509050600082602001820190505b6001156122c5578080600190039150507f3031323334353637383961626364656600000000000000000000000000000000600a86061a8153600a85816122b9576122b86134e1565b5b04945060008503612270575b819350505050919050565b60008073ffffffffffffffffffffffffffffffffffffffff168373ffffffffffffffffffffffffffffffffffffffff161415801561238857508273ffffffffffffffffffffffffffffffffffffffff168473ffffffffffffffffffffffffffffffffffffffff161480612349575061234884846111b3565b5b8061238757508273ffffffffffffffffffffffffffffffffffffffff1661236f83611437565b73ffffffffffffffffffffffffffffffffffffffff16145b5b90509392505050565b600080600090507a184f03e93ff9f4daa797ed6e38ed64bf6a1f01000000000000000083106123ef577a184f03e93ff9f4daa797ed6e38ed64bf6a1f01000000000000000083816123e5576123e46134e1565b5b0492506040810190505b6d04ee2d6d415b85acef8100000000831061242c576d04ee2d6d415b85acef81000000008381612422576124216134e1565b5b0492506020810190505b662386f26fc10000831061245b57662386f26fc100008381612451576124506134e1565b5b0492506010810190505b6305f5e1008310612484576305f5e100838161247a576124796134e1565b5b0492506008810190505b61271083106124a957612710838161249f5761249e6134e1565b5b0492506004810190505b606483106124cc57606483816124c2576124c16134e1565b5b0492506002810190505b600a83106124db576001810190505b80915050919050565b6000604051905090565b600080fd5b600080fd5b60007fffffffff0000000000000000000000000000000000000000000000000000000082169050919050565b61252d816124f8565b811461253857600080fd5b50565b60008135905061254a81612524565b92915050565b600060208284031215612566576125656124ee565b5b60006125748482850161253b565b91505092915050565b60008115159050919050565b6125928161257d565b82525050565b60006020820190506125ad6000830184612589565b92915050565b6000819050919050565b6125c6816125b3565b81146125d157600080fd5b50565b6000813590506125e3816125bd565b92915050565b6000602082840312156125ff576125fe6124ee565b5b600061260d848285016125d4565b91505092915050565b600081519050919050565b600082825260208201905092915050565b60005b83811015612650578082015181840152602081019050612635565b60008484015250505050565b6000601f19601f8301169050919050565b600061267882612616565b6126828185612621565b9350612692818560208601612632565b61269b8161265c565b840191505092915050565b600060208201905081810360008301526126c0818461266d565b905092915050565b600073ffffffffffffffffffffffffffffffffffffffff82169050919050565b60006126f3826126c8565b9050919050565b612703816126e8565b82525050565b600060208201905061271e60008301846126fa565b92915050565b61272d816126e8565b811461273857600080fd5b50565b60008135905061274a81612724565b92915050565b60008060408385031215612767576127666124ee565b5b60006127758582860161273b565b9250506020612786858286016125d4565b9150509250929050565b600080fd5b600080fd5b7f4e487b7100000000000000000000000000000000000000000000000000000000600052604160045260246000fd5b6127d28261265c565b810181811067ffffffffffffffff821117156127f1576127f061279a565b5b80604052505050565b60006128046124e4565b905061281082826127c9565b919050565b600067ffffffffffffffff8211156128305761282f61279a565b5b6128398261265c565b9050602081019050919050565b82818337600083830152505050565b600061286861286384612815565b6127fa565b90508281526020810184848401111561288457612883612795565b5b61288f848285612846565b509392505050565b600082601f8301126128ac576128ab612790565b5b81356128bc848260208601612855565b91505092915050565b6000602082840312156128db576128da6124ee565b5b600082013567ffffffffffffffff8111156128f9576128f86124f3565b5b61290584828501612897565b91505092915050565b612917816125b3565b82525050565b6000602082019050612932600083018461290e565b92915050565b600080600060608486031215612951576129506124ee565b5b600061295f8682870161273b565b93505060206129708682870161273b565b9250506040612981868287016125d4565b9150509250925092565b6000612996826126c8565b9050919050565b6129a68161298b565b82525050565b600060a0820190506129c1600083018861290e565b6129ce602083018761290e565b6129db604083018661299d565b6129e8606083018561299d565b6129f56080830184612589565b9695505050505050565b600060208284031215612a1557612a146124ee565b5b6000612a238482850161273b565b91505092915050565b612a358161257d565b8114612a4057600080fd5b50565b600081359050612a5281612a2c565b92915050565b60008060408385031215612a6f57612a6e6124ee565b5b6000612a7d8582860161273b565b9250506020612a8e85828601612a43565b9150509250929050565b600067ffffffffffffffff821115612ab357612ab261279a565b5b612abc8261265c565b9050602081019050919050565b6000612adc612ad784612a98565b6127fa565b905082815260208101848484011115612af857612af7612795565b5b612b03848285612846565b509392505050565b600082601f830112612b2057612b1f612790565b5b8135612b30848260208601612ac9565b91505092915050565b60008060008060808587031215612b5357612b526124ee565b5b6000612b618782880161273b565b9450506020612b728782880161273b565b9350506040612b83878288016125d4565b925050606085013567ffffffffffffffff811115612ba457612ba36124f3565b5b612bb087828801612b0b565b91505092959194509250565b60008060408385031215612bd357612bd26124ee565b5b6000612be18582860161273b565b9250506020612bf28582860161273b565b9150509250929050565b7f596f75206d757374206f776e20746865206d656d6520746f2061756374696f6e60008201527f2069742e00000000000000000000000000000000000000000000000000000000602082015250565b6000612c58602483612621565b9150612c6382612bfc565b604082019050919050565b60006020820190508181036000830152612c8781612c4b565b9050919050565b7f4d656d6520697320616c7265616479206f6e2061756374696f6e2e0000000000600082015250565b6000612cc4601b83612621565b9150612ccf82612c8e565b602082019050919050565b60006020820190508181036000830152612cf381612cb7565b9050919050565b7f4e487b7100000000000000000000000000000000000000000000000000000000600052602260045260246000fd5b60006002820490506001821680612d4157607f821691505b602082108103612d5457612d53612cfa565b5b50919050565b7f4e487b7100000000000000000000000000000000000000000000000000000000600052601160045260246000fd5b6000612d94826125b3565b91507fffffffffffffffffffffffffffffffffffffffffffffffffffffffffffffffff8203612dc657612dc5612d5a565b5b600182019050919050565b6000606082019050612de6600083018661290e565b8181036020830152612df8818561266d565b9050612e0760408301846126fa565b949350505050565b6000606082019050612e2460008301866126fa565b612e31602083018561290e565b612e3e60408301846126fa565b949350505050565b7f54686973206d656d65206973206e6f74206f6e2061756374696f6e2e00000000600082015250565b6000612e7c601c83612621565b9150612e8782612e46565b602082019050919050565b60006020820190508181036000830152612eab81612e6f565b9050919050565b7f426964206d75737420626520686967686572207468616e20746865206375727260008201527f656e74206269642e000000000000000000000000000000000000000000000000602082015250565b6000612f0e602883612621565b9150612f1982612eb2565b604082019050919050565b60006020820190508181036000830152612f3d81612f01565b9050919050565b6000606082019050612f59600083018661290e565b612f66602083018561290e565b612f7360408301846126fa565b949350505050565b7f4f6e6c7920746865206f776e65722063616e20656e642074686520617563746960008201527f6f6e2e0000000000000000000000000000000000000000000000000000000000602082015250565b6000612fd7602383612621565b9150612fe282612f7b565b604082019050919050565b6000602082019050818103600083015261300681612fca565b9050919050565b7f4d656d65206973206e6f74206f6e2061756374696f6e2e000000000000000000600082015250565b6000613043601783612621565b915061304e8261300d565b602082019050919050565b6000602082019050818103600083015261307281613036565b9050919050565b6000819050919050565b600061309e613099613094846126c8565b613079565b6126c8565b9050919050565b60006130b082613083565b9050919050565b60006130c2826130a5565b9050919050565b6130d2816130b7565b82525050565b60006040820190506130ed600083018561290e565b6130fa60208301846130c9565b9392505050565b600081905092915050565b600061311782612616565b6131218185613101565b9350613131818560208601612632565b80840191505092915050565b6000613149828561310c565b9150613155828461310c565b91508190509392505050565b60008190508160005260206000209050919050565b60006020601f8301049050919050565b600082821b905092915050565b6000600883026131c37fffffffffffffffffffffffffffffffffffffffffffffffffffffffffffffffff82613186565b6131cd8683613186565b95508019841693508086168417925050509392505050565b60006132006131fb6131f6846125b3565b613079565b6125b3565b9050919050565b6000819050919050565b61321a836131e5565b61322e61322682613207565b848454613193565b825550505050565b600090565b613243613236565b61324e818484613211565b505050565b5b818110156132725761326760008261323b565b600181019050613254565b5050565b601f8211156132b75761328881613161565b61329184613176565b810160208510156132a0578190505b6132b46132ac85613176565b830182613253565b50505b505050565b600082821c905092915050565b60006132da600019846008026132bc565b1980831691505092915050565b60006132f383836132c9565b9150826002028217905092915050565b61330c82612616565b67ffffffffffffffff8111156133255761332461279a565b5b61332f8254612d29565b61333a828285613276565b600060209050601f83116001811461336d576000841561335b578287015190505b61336585826132e7565b8655506133cd565b601f19841661337b86613161565b60005b828110156133a35784890151825560018201915060208501945060208101905061337e565b868310156133c057848901516133bc601f8916826132c9565b8355505b6001600288020188555050505b505050505050565b600081519050919050565b600082825260208201905092915050565b60006133fc826133d5565b61340681856133e0565b9350613416818560208601612632565b61341f8161265c565b840191505092915050565b600060808201905061343f60008301876126fa565b61344c60208301866126fa565b613459604083018561290e565b818103606083015261346b81846133f1565b905095945050505050565b60008151905061348581612524565b92915050565b6000602082840312156134a1576134a06124ee565b5b60006134af84828501613476565b91505092915050565b60006040820190506134cd60008301856126fa565b6134da602083018461290e565b9392505050565b7f4e487b7100000000000000000000000000000000000000000000000000000000600052601260045260246000fdfea264697066735822122017c88451439f5a171070b33e1b0a4d79533a4d458cd82cdde29124673d60d9f364736f6c63430008140033",
  "linkReferences": {},
  "deployedLinkReferences": {}
}